{
  "contractName": "ExerciceSolution",
  "abi": [
    {
      "inputs": [],
      "name": "depositSomeTokens",
      "outputs": [],
      "stateMutability": "nonpayable",
      "type": "function"
    },
    {
      "inputs": [],
      "name": "withdrawSomeTokens",
      "outputs": [],
      "stateMutability": "nonpayable",
      "type": "function"
    },
    {
      "inputs": [],
      "name": "borrowSomeTokens",
      "outputs": [],
      "stateMutability": "nonpayable",
      "type": "function"
    },
    {
      "inputs": [],
      "name": "repaySomeTokens",
      "outputs": [],
      "stateMutability": "nonpayable",
      "type": "function"
    },
    {
      "inputs": [],
      "name": "doAFlashLoan",
      "outputs": [],
      "stateMutability": "nonpayable",
      "type": "function"
    },
    {
      "inputs": [],
      "name": "repayFlashLoan",
      "outputs": [],
      "stateMutability": "nonpayable",
      "type": "function"
    }
  ],
  "bytecode": "0x6080604052737b5c526b7f8dfdff278b4a3e045083fba40287906000806101000a81548173ffffffffffffffffffffffffffffffffffffffff021916908373ffffffffffffffffffffffffffffffffffffffff16021790555073ba8dced3512925e52fe67b1b5329187589072a55600160006101000a81548173ffffffffffffffffffffffffffffffffffffffff021916908373ffffffffffffffffffffffffffffffffffffffff1602179055507365afadd39029741b3b8f0756952c74678c9cec93600260006101000a81548173ffffffffffffffffffffffffffffffffffffffff021916908373ffffffffffffffffffffffffffffffffffffffff16021790555064e9feab020060035564ea3494952060045534801561012057600080fd5b50610bde806101306000396000f3fe608060405234801561001057600080fd5b50600436106100625760003560e01c80631a231a71146100675780634b5bd34f14610071578063d871f5941461007b578063db50609f14610085578063f6b96bae1461008f578063fc6669b614610099575b600080fd5b61006f6100a3565b005b6100796101d5565b005b610083610428565b005b61008d6105d1565b005b610097610716565b005b6100a1610959565b005b6000809054906101000a900473ffffffffffffffffffffffffffffffffffffffff1673ffffffffffffffffffffffffffffffffffffffff1663a415bcad600260009054906101000a900473ffffffffffffffffffffffffffffffffffffffff16633b9aca0060026000306040518663ffffffff1660e01b8152600401808673ffffffffffffffffffffffffffffffffffffffff1673ffffffffffffffffffffffffffffffffffffffff1681526020018581526020018481526020018361ffff1681526020018273ffffffffffffffffffffffffffffffffffffffff1673ffffffffffffffffffffffffffffffffffffffff16815260200195505050505050600060405180830381600087803b1580156101bb57600080fd5b505af11580156101cf573d6000803e3d6000fd5b50505050565b600260009054906101000a900473ffffffffffffffffffffffffffffffffffffffff1673ffffffffffffffffffffffffffffffffffffffff1663095ea7b36000809054906101000a900473ffffffffffffffffffffffffffffffffffffffff16630bebc2006040518363ffffffff1660e01b8152600401808373ffffffffffffffffffffffffffffffffffffffff1673ffffffffffffffffffffffffffffffffffffffff16815260200182815260200192505050602060405180830381600087803b1580156102a357600080fd5b505af11580156102b7573d6000803e3d6000fd5b505050506040513d60208110156102cd57600080fd5b8101908080519060200190929190505050506000809054906101000a900473ffffffffffffffffffffffffffffffffffffffff1673ffffffffffffffffffffffffffffffffffffffff1663573ade81600260009054906101000a900473ffffffffffffffffffffffffffffffffffffffff16630bebc2006002306040518563ffffffff1660e01b8152600401808573ffffffffffffffffffffffffffffffffffffffff1673ffffffffffffffffffffffffffffffffffffffff1681526020018481526020018381526020018273ffffffffffffffffffffffffffffffffffffffff1673ffffffffffffffffffffffffffffffffffffffff168152602001945050505050602060405180830381600087803b1580156103ea57600080fd5b505af11580156103fe573d6000803e3d6000fd5b505050506040513d602081101561041457600080fd5b810190808051906020019092919050505050565b60606040518060200160405280600081525090506000809054906101000a900473ffffffffffffffffffffffffffffffffffffffff1673ffffffffffffffffffffffffffffffffffffffff166342b0b77c30600260009054906101000a900473ffffffffffffffffffffffffffffffffffffffff166003548560006040518663ffffffff1660e01b8152600401808673ffffffffffffffffffffffffffffffffffffffff1673ffffffffffffffffffffffffffffffffffffffff1681526020018573ffffffffffffffffffffffffffffffffffffffff1673ffffffffffffffffffffffffffffffffffffffff168152602001848152602001806020018361ffff168152602001828103825284818151815260200191508051906020019080838360005b8381101561056657808201518184015260208101905061054b565b50505050905090810190601f1680156105935780820380516001836020036101000a031916815260200191505b509650505050505050600060405180830381600087803b1580156105b657600080fd5b505af11580156105ca573d6000803e3d6000fd5b5050505050565b6000809054906101000a900473ffffffffffffffffffffffffffffffffffffffff1673ffffffffffffffffffffffffffffffffffffffff166369328dec600160009054906101000a900473ffffffffffffffffffffffffffffffffffffffff16680ad78ebc5ac6200000336040518463ffffffff1660e01b8152600401808473ffffffffffffffffffffffffffffffffffffffff1673ffffffffffffffffffffffffffffffffffffffff1681526020018381526020018273ffffffffffffffffffffffffffffffffffffffff1673ffffffffffffffffffffffffffffffffffffffff1681526020019350505050602060405180830381600087803b1580156106d857600080fd5b505af11580156106ec573d6000803e3d6000fd5b505050506040513d602081101561070257600080fd5b810190808051906020019092919050505050565b600068a2a15d09519be0000090506000809050600160009054906101000a900473ffffffffffffffffffffffffffffffffffffffff1673ffffffffffffffffffffffffffffffffffffffff1663095ea7b36000809054906101000a900473ffffffffffffffffffffffffffffffffffffffff16846040518363ffffffff1660e01b8152600401808373ffffffffffffffffffffffffffffffffffffffff1673ffffffffffffffffffffffffffffffffffffffff16815260200182815260200192505050602060405180830381600087803b1580156107f357600080fd5b505af1158015610807573d6000803e3d6000fd5b505050506040513d602081101561081d57600080fd5b8101908080519060200190929190505050506000809054906101000a900473ffffffffffffffffffffffffffffffffffffffff1673ffffffffffffffffffffffffffffffffffffffff1663617ba037600160009054906101000a900473ffffffffffffffffffffffffffffffffffffffff168430856040518563ffffffff1660e01b8152600401808573ffffffffffffffffffffffffffffffffffffffff1673ffffffffffffffffffffffffffffffffffffffff1681526020018481526020018373ffffffffffffffffffffffffffffffffffffffff1673ffffffffffffffffffffffffffffffffffffffff1681526020018261ffff1661ffff168152602001945050505050600060405180830381600087803b15801561093d57600080fd5b505af1158015610951573d6000803e3d6000fd5b505050505050565b600260009054906101000a900473ffffffffffffffffffffffffffffffffffffffff1673ffffffffffffffffffffffffffffffffffffffff1663095ea7b36000809054906101000a900473ffffffffffffffffffffffffffffffffffffffff166004546040518363ffffffff1660e01b8152600401808373ffffffffffffffffffffffffffffffffffffffff1673ffffffffffffffffffffffffffffffffffffffff16815260200182815260200192505050602060405180830381600087803b158015610a2557600080fd5b505af1158015610a39573d6000803e3d6000fd5b505050506040513d6020811015610a4f57600080fd5b8101908080519060200190929190505050506000809054906101000a900473ffffffffffffffffffffffffffffffffffffffff1673ffffffffffffffffffffffffffffffffffffffff1663573ade81600260009054906101000a900473ffffffffffffffffffffffffffffffffffffffff166004546002306040518563ffffffff1660e01b8152600401808573ffffffffffffffffffffffffffffffffffffffff1673ffffffffffffffffffffffffffffffffffffffff1681526020018481526020018381526020018273ffffffffffffffffffffffffffffffffffffffff1673ffffffffffffffffffffffffffffffffffffffff168152602001945050505050602060405180830381600087803b158015610b6a57600080fd5b505af1158015610b7e573d6000803e3d6000fd5b505050506040513d6020811015610b9457600080fd5b81019080805190602001909291905050505056fea2646970667358221220899ebfa3ff12ae17c7313d7cf41090499a849d6b320f7b144d51df2271c0128064736f6c63430006000033",
  "source": "pragma solidity ^0.6.0;\r\nimport \"@openzeppelin/contracts/token/ERC20/IERC20.sol\";\r\nimport \"@openzeppelin/contracts/token/ERC20/ERC20.sol\";\r\nimport \"./IExerciceSolution.sol\";\r\nimport \"./IPool.sol\";\r\ncontract ExerciceSolution is IExerciceSolution \r\n{\r\n\t\r\n\t//ERC20 public USDC = address(0x65aFADD39029741B3b8f0756952C74678c9cEC93 );\r\n\t//ERC20 public aDAI = address(0xADD98B0342e4094Ec32f3b67Ccfd3242C876ff7a);\r\n\taddress poolAddress= address(0x7b5C526B7F8dfdff278b4a3e045083FBA4028790);\r\n\taddress daiAddress = address(0xBa8DCeD3512925e52FE67b1b5329187589072A55);\r\n\taddress USDCAddress =address(0x65aFADD39029741B3b8f0756952C74678c9cEC93);\r\n\tuint milion=1000000*1005000;\r\n\tuint milion_fee=1005000*1000900;\r\n\tfunction depositSomeTokens() override external\r\n\t{\r\n\t\t// Input variables\r\n\t\t// mainnet DAI\r\n\t\tuint256 amount = 3000 * 1e18;\r\n\t\tuint16 referral = 0;\r\n\r\n\t\t// Approve LendingPool contract to move your DAI\r\n\t\tIERC20(daiAddress).approve(poolAddress, amount);\r\n\r\n\t\t// Deposit 1000 DAI\r\n\t\tIPool(poolAddress).supply(daiAddress, amount,address(this), referral);\r\n\t}\r\n\r\n\tfunction withdrawSomeTokens() override external\r\n\t{\r\n\t\tIPool(poolAddress).withdraw(daiAddress,200*1e18,msg.sender);\r\n\t}\r\n\r\n\tfunction borrowSomeTokens() override external\r\n\t{\r\n\r\n\t\tIPool(poolAddress).borrow(USDCAddress,100*10e6,2,0,address(this));\r\n\t}\r\n\r\n\tfunction repaySomeTokens() override external{\r\n\t\t// Approve LendingPool contract to move your DAI\r\n\t\tIERC20(USDCAddress).approve(poolAddress, 20*10e6);\r\n\r\n\t\t// Deposit 1000 DAI\r\n\t\tIPool(poolAddress).repay(USDCAddress, 20*10e6, 2,address(this));\r\n\t}\r\n\r\n\tfunction doAFlashLoan() override external{\r\n\t\tbytes memory data=\"\";\r\n\t\tIPool(poolAddress).flashLoanSimple(address(this), USDCAddress, milion, data, 0);\r\n\t}\r\n\t/*function rendargent(uint amount) external{\r\n\t\taddress moi = address(0xCC5b06709D8D55b16F9c54B0EB2b7b2b18070e46);\r\n\t\tIERC20(USDCAddress).approve(moi, amount*10**6);\r\n\t\tIERC20(USDCAddress).transfer(moi, amount*10**6);\r\n\t} */\r\n\r\n\tfunction repayFlashLoan() override external{\r\n\t\tIERC20(USDCAddress).approve(poolAddress,milion_fee);\r\n\t\tIPool(poolAddress).repay(USDCAddress,milion_fee,2,address(this));\r\n\t}\t\r\n}\r\n\r\n\r\n// Retrieve LendingPool address\r\n\r\n",
  "sourcePath": "C:\\Users\\teyss\\Documents\\GitHub\\lending-101\\contracts\\ExerciceSolution.sol",
  "compiler": {
    "name": "solc",
    "version": "0.6.0+commit.26b70077.Emscripten.clang"
  },
  "schemaVersion": "3.4.10",
  "updatedAt": "2023-02-24T07:29:29.289Z",
  "networkType": "ethereum",
  "devdoc": {
    "methods": {}
  },
  "userdoc": {
    "methods": {}
  }
}